:03000000020E1DD0
:0C0E1D00787FE4F6D8FD758126020E6493
:04100E0001010101DA
:100FBE0001112D011E00040A303030300A12C0F922
:100FCE00A4B0999282F88098010F00011C00011DB7
:070FDE0000010900011000F1
:0F0FFE007F647EE8EED3940040031E80F7DFF59A
:01100D0022C0
:100D80007D2DC2902097047D4180132096047D33F1
:100D9000800C2095047D3280052094027D31D29014
:100DA000C2912097047D4280132096047D36800CEA
:100DB0002095047D3580052094027D34D291C29225
:100DC0002097047D4380132096047D39800C209564
:100DD000047D3880052094027D37D292C2932097FB
:100DE000047D4480132096047D23800C2095047D8F
:100DF0003080052094027D2AD293120FFEBD2D096A
:100E000075082D75112D7F0022EDB5080B65116059
:0C0E1000078D0E8D117F01228D087F00E0
:010E1C0022B3
:03001B00020FE6EB
:100FE600C0E0851C8D851D8BE5107007B2B785099D
:080FF6001080021510D0E0325A
:100BE600E50B24D0FFE434FFFE7C007D64120BC6C7
:100BF600AA06AB07E50A24D0FFE434FFFE7C037D9A
:100C0600E8120BC6EF2BFBEE3AFAE50C24D0FFE414
:100C160034FFFE7C007D0A120BC6EF2BFFEE3AFE78
:100C2600E50D24D0FDEC34FFCD2FFFED3EAB07FAEA
:100C3600C3EB94DCEA9405500C7522F675212875F1
:100C4600207C020CCBC3EB94C4EA9409500B7522AA
:100C5600D77521A3752070806CC3EB94ACEA940D14
:100C6600500B75220A7521D77520638058C3EB9403
:100C760094EA9411500B7522527521B875205E8046
:100C860044C3EB947CEA9415500B75229A7521990E
:100C96007520598030C3EB944CEA941D500B752295
:100CA6007175213D75204A801CC3EB941CEA94257E
:100CB600500AE4F522F52175204080097522EC756D
:100CC6002151752038751F3FAF22AE21AD20AC1FD4
:100CD600C004C005C006C007EB25E0FDEA33FCE40E
:100CE600120A16A804A905AA06AB07D007D006D093
:100CF60005D0041208FB8F228E218D208C1F7F7356
:100D06007E687D917C3DAB22AA21A920A81F1209ED
:100D16009860025043AF22AE21AD20AC1F7B517AC2
:100D2600A0799178351208FB8F228E218D208C1F99
:100D3600AB22AA21A920A81FE4FFFE7D807C4712D2
:100D460008038F228E218D208C1F120A4FEFF51D6E
:100D56008E1CE4F509F510227B0A7AD77923783CB4
:100D6600AF22AE21AD20AC1F1208FB120A4F8F092D
:090D7600751DFF751CDB850910D9
:010D7F002251
:03000300020F1FCA
:100F1F00C0E0C0F0C083C082C0D075D000C000C098
:100F2F0001C002C003C004C005C006C007E50F70B2
:100F3F000A120BE6D28E750F018015C28EC28FD2A8
:100F4F00B7750A30750B30750C30750D30750F0095
:100F5F00120FFED007D006D005D004D003D002D098
:0E0F6F0001D000D0D0D082D083D0F0D0E032BC
:03000B00020EA939
:100EA900C0E0C0F0C083C082C0D075D000C000C00F
:0D0EB90001C002C003C004C005C006C00790
:100EC60078237C007D007BFF7A10790E7E007F04FC
:100ED600120BA0758A00758CF0AF1EA80774010866
:100EE6008002C333D8FCF580740A251EF8E624E296
:0E0EF600F8E6F5A0051EE51EB40403751E0007
:100F0400D007D006D005D004D003D002D001D00041
:0B0F1400D0D0D082D083D0F0D0E032EB
:100F7D00758130E58954F04411F589D288D2A9E400
:100F8D00F58A758CF0D2A8D2AFD28C851C8D851DBB
:100F9D008BD2ABD2AFD290D291D292D293120D808E
:100FAD00BF01FA850B0A850C0B850D0C850E0D8086
:010FBD00EC47
:10080000020ABBE86480F8E933E83360110460F061
:10081000ED33EC337009E8FCE9FDEAFEEBFF22045E
:1008200060DED3EB9FEA9EE99DE8C2E78CF0C2F759
:1008300095F0400CE8CCF8E9CDF9EACEFAEBCFFB25
:10084000120A8685D0F05804700320D5B3E80470EE
:10085000075002B2D5020AC592D5EC0460F7E4CC89
:10086000C0E0C398F8603B94186008400DD0E0FBEE
:10087000020A9DE4FBFAC9FC8028E830E406E4C9DA
:10088000FBE4CAFCE830E305E4C9CACBFCE8540742
:100890006010F8C3E913F9EA13FAEB13FBEC13FC4D
:1008A000D8F130F52FC3E49CFCEF9BFFEE9AFEEDF0
:1008B00099FDD0E0FBEF4E4D4C701222DB03020A93
:1008C000C2EC2CFCEF33FFEE33FEED33FDED30E7F1
:1008D000EB020A9DEF2BFFEE3AFEED39FDD0E0FB77
:1008E00050130BBB0003020AC5ED13FDEE13FEEF20
:0808F00013FFEC13FC020A9D4A
:1008F800020AC5EC5D046005E859047003020ABBEE
:10090800120A86580460F6EC4860F2EC7004FDFEAA
:10091800FF22C860DB2481C85009C39860025006D2
:10092800020AC29850CAF582E9294B4A7005AB827F
:10093800020AB175F0007C1A7880C3EF9BEE9AED3D
:1009480099400DC3EF9BFFEE9AFEED99FDE842F04A
:10095800DC23ACF0D0E0FFD0E0FED0E0FDAB82209D
:10096800E7101BEB60BAEC2CFCEF33FFEE33FEED27
:1009780033FD020A9DE803F830E705C0F075F00082
:10098800EF2FFFEE33FEED33FD40B830E7C280AA0B
:1009980074F8CC6480CCC86480C8F58204604FC306
:1009A800EB9FF5F0EA9E42F0E99D42F0E89C45F0A5
:1009B800603C501DE5825FFFE582D313CB5BCBF42F
:1009C8002B5582FB50280ABA002409B90020088058
:1009D8001DE5825BFBE582D313CF5FCFF4C3132FF2
:1009E8005582FF50090EBE00050DBD00010CC3EB7A
:1009F8009FF5F0EA9E42F0E99D42F0E89C45F060E0
:090A080007CC4820E701B3EC2201
:100A110075F020800E75F010800575F0087D007E60
:100A2100007F003392D530D503120BD8EC33401040
:100A3100EF33FFEE33FEED33FDEC33FCD5F0ED2269
:0E0A4100E5F0247EA2D513CC92E7CDCEFF22A5
:100A4F00EDD2E7CD33EC3392D524814006E4FFFE9F
:100A5F00FDFC22FCE4CFCECDCC24E0501174FF80FE
:100A6F00EDC3CC13CCCD13CDCE13CECF13CF04709B
:070A7F00F030D5DE020BD8B8
:100A8600E9D2E7C933E833F892D5EDD2E7CD33ECB6
:070A960033FC5002B2D5222F
:100A9D00EC30E7100FBF000C0EBE00080DBD0004BA
:100AAD000BEB6014A2D5EB13FCED92E7FD2274FF66
:100ABD00FCFDFEFF22E480F8A2D574FF13FC7D80BF
:030ACD00E480EFD3
:100E2900020F7DE493A3F8E493A34003F68001F253
:100E390008DFF48029E493A3F85407240CC8C333CA
:100E4900C4540F4420C8834004F456800146F6DF99
:100E5900E4800B0102040810204080900FBEE47E5C
:100E6900019360BCA3FF543F30E509541FFEE4938E
:100E7900A360010ECF54C025E060A840B8E493A355
:100E8900FAE493A3F8E493A3C8C582C8CAC583CA80
:100E9900F0A3C8C582C8CAC583CADFE9DEE780BE38
:010FE500000B
:100AD000E709F608DFFA8046E709F208DFFA803E08
:100AE00088828C83E709F0A3DFFA8032E309F608F5
:100AF000DFFA8078E309F208DFFA807088828C835D
:100B0000E309F0A3DFFA806489828A83E0A3F60810
:100B1000DFFA805889828A83E0A3F208DFFA804CEA
:100B200080D280FA80C680D4806980F280338010C1
:100B300080A680EA809A80A880DA80E280CA80332A
:100B400089828A83ECFAE493A3C8C582C8CCC583A2
:100B5000CCF0A3C8C582C8CCC583CCDFE9DEE78072
:100B60000D89828A83E493A3F608DFF9ECFAA9F0F1
:100B7000EDFB2289828A83ECFAE0A3C8C582C8CC47
:100B8000C583CCF0A3C8C582C8CCC583CCDFEADE60
:100B9000E880DB89828A83E493A3F208DFF980CCC2
:100BA00088F0EF60010E4E60C388F0ED2402B404BB
:100BB0000050B9F582EB2402B4040050AF23234562
:060BC0008223900B20735C
:100BC600EF8DF0A4A8F0CF8CF0A428CE8DF0A42E43
:020BD600FE22FD
:0E0BD800C3E49FFFE49EFEE49DFDE49CFC222E
:00000001FF
